{
  "_format": "hh-sol-artifact-1",
  "contractName": "NFTMarketplace",
  "sourceName": "contracts/NftMarketplace.sol",
  "abi": [
    {
      "inputs": [
        {
          "internalType": "address",
          "name": "nftAddress",
          "type": "address"
        },
        {
          "internalType": "uint256",
          "name": "tokenId",
          "type": "uint256"
        }
      ],
      "name": "NFTMarketplace__AlreadyListed",
      "type": "error"
    },
    {
      "inputs": [],
      "name": "NFTMarketplace__NotApprovedForMarketplace",
      "type": "error"
    },
    {
      "inputs": [],
      "name": "NFTMarketplace__NotListed",
      "type": "error"
    },
    {
      "inputs": [],
      "name": "NFTMarketplace__NotOwner",
      "type": "error"
    },
    {
      "inputs": [],
      "name": "NFTMarketplace__PriceCannotBeZero",
      "type": "error"
    },
    {
      "inputs": [],
      "name": "NFTMarketplace__PriceNotMet",
      "type": "error"
    },
    {
      "anonymous": false,
      "inputs": [
        {
          "indexed": true,
          "internalType": "address",
          "name": "buyer",
          "type": "address"
        },
        {
          "indexed": false,
          "internalType": "address",
          "name": "nftAddress",
          "type": "address"
        },
        {
          "indexed": true,
          "internalType": "uint256",
          "name": "tokenId",
          "type": "uint256"
        },
        {
          "indexed": false,
          "internalType": "uint256",
          "name": "price",
          "type": "uint256"
        }
      ],
      "name": "ItemBought",
      "type": "event"
    },
    {
      "anonymous": false,
      "inputs": [
        {
          "indexed": true,
          "internalType": "address",
          "name": "nftAddress",
          "type": "address"
        },
        {
          "indexed": true,
          "internalType": "uint256",
          "name": "tokenId",
          "type": "uint256"
        }
      ],
      "name": "ItemCancelled",
      "type": "event"
    },
    {
      "anonymous": false,
      "inputs": [
        {
          "indexed": true,
          "internalType": "address",
          "name": "seller",
          "type": "address"
        },
        {
          "indexed": true,
          "internalType": "address",
          "name": "nftAddress",
          "type": "address"
        },
        {
          "indexed": true,
          "internalType": "uint256",
          "name": "tokenId",
          "type": "uint256"
        },
        {
          "indexed": false,
          "internalType": "uint256",
          "name": "price",
          "type": "uint256"
        }
      ],
      "name": "ItemListed",
      "type": "event"
    },
    {
      "inputs": [
        {
          "internalType": "address",
          "name": "nftAddress",
          "type": "address"
        },
        {
          "internalType": "uint256",
          "name": "tokenId",
          "type": "uint256"
        }
      ],
      "name": "buyItem",
      "outputs": [],
      "stateMutability": "payable",
      "type": "function"
    },
    {
      "inputs": [
        {
          "internalType": "address",
          "name": "nftAddress",
          "type": "address"
        },
        {
          "internalType": "uint256",
          "name": "tokenId",
          "type": "uint256"
        }
      ],
      "name": "cancelListing",
      "outputs": [],
      "stateMutability": "nonpayable",
      "type": "function"
    },
    {
      "inputs": [
        {
          "internalType": "address",
          "name": "nftAddress",
          "type": "address"
        },
        {
          "internalType": "uint256",
          "name": "tokenId",
          "type": "uint256"
        },
        {
          "internalType": "uint256",
          "name": "price",
          "type": "uint256"
        }
      ],
      "name": "listItem",
      "outputs": [],
      "stateMutability": "nonpayable",
      "type": "function"
    },
    {
      "inputs": [
        {
          "internalType": "address",
          "name": "",
          "type": "address"
        },
        {
          "internalType": "uint256",
          "name": "",
          "type": "uint256"
        }
      ],
      "name": "s_listings",
      "outputs": [
        {
          "internalType": "address",
          "name": "owner",
          "type": "address"
        },
        {
          "internalType": "uint256",
          "name": "price",
          "type": "uint256"
        }
      ],
      "stateMutability": "view",
      "type": "function"
    },
    {
      "inputs": [
        {
          "internalType": "address",
          "name": "nftAddress",
          "type": "address"
        },
        {
          "internalType": "uint256",
          "name": "tokenId",
          "type": "uint256"
        },
        {
          "internalType": "uint256",
          "name": "price",
          "type": "uint256"
        }
      ],
      "name": "updateListing",
      "outputs": [],
      "stateMutability": "nonpayable",
      "type": "function"
    }
  ],
  "bytecode": "0x608060405234801561001057600080fd5b50611045806100206000396000f3fe60806040526004361061004a5760003560e01c806389bfd38f1461004f5780639f37092a14610078578063a0b5a2ee14610094578063b2ddee06146100d2578063f772adf1146100fb575b600080fd5b34801561005b57600080fd5b5061007660048036038101906100719190610e3e565b610124565b005b610092600480360381019061008d9190610e91565b6105d3565b005b3480156100a057600080fd5b506100bb60048036038101906100b69190610e91565b610890565b6040516100c9929190610eef565b60405180910390f35b3480156100de57600080fd5b506100f960048036038101906100f49190610e91565b6108e1565b005b34801561010757600080fd5b50610122600480360381019061011d9190610e3e565b610ba5565b005b82823360008390508073ffffffffffffffffffffffffffffffffffffffff16636352211e846040518263ffffffff1660e01b81526004016101659190610f18565b602060405180830381865afa158015610182573d6000803e3d6000fd5b505050506040513d601f19601f820116820180604052508101906101a69190610f48565b73ffffffffffffffffffffffffffffffffffffffff168273ffffffffffffffffffffffffffffffffffffffff161461020a576040517f98ca622600000000000000000000000000000000000000000000000000000000815260040160405180910390fd5b868660008060008473ffffffffffffffffffffffffffffffffffffffff1673ffffffffffffffffffffffffffffffffffffffff16815260200190815260200160002060008381526020019081526020016000206040518060400160405290816000820160009054906101000a900473ffffffffffffffffffffffffffffffffffffffff1673ffffffffffffffffffffffffffffffffffffffff1673ffffffffffffffffffffffffffffffffffffffff1681526020016001820154815250509050600081602001511015610308576040517e7b2f2700000000000000000000000000000000000000000000000000000000815260040160405180910390fd5b60008811610342576040517f86b8751400000000000000000000000000000000000000000000000000000000815260040160405180910390fd5b60008a90503073ffffffffffffffffffffffffffffffffffffffff168173ffffffffffffffffffffffffffffffffffffffff1663081812fc8c6040518263ffffffff1660e01b81526004016103979190610f18565b602060405180830381865afa1580156103b4573d6000803e3d6000fd5b505050506040513d601f19601f820116820180604052508101906103d89190610f48565b73ffffffffffffffffffffffffffffffffffffffff1614610425576040517fa82ec0f800000000000000000000000000000000000000000000000000000000815260040160405180910390fd5b8073ffffffffffffffffffffffffffffffffffffffff1663095ea7b3308c6040518363ffffffff1660e01b8152600401610460929190610eef565b600060405180830381600087803b15801561047a57600080fd5b505af115801561048e573d6000803e3d6000fd5b5050505060405180604001604052803373ffffffffffffffffffffffffffffffffffffffff1681526020018a8152506000808d73ffffffffffffffffffffffffffffffffffffffff1673ffffffffffffffffffffffffffffffffffffffff16815260200190815260200160002060008c815260200190815260200160002060008201518160000160006101000a81548173ffffffffffffffffffffffffffffffffffffffff021916908373ffffffffffffffffffffffffffffffffffffffff16021790555060208201518160010155905050898b73ffffffffffffffffffffffffffffffffffffffff163373ffffffffffffffffffffffffffffffffffffffff167fd547e933094f12a9159076970143ebe73234e64480317844b0dcb36117116de48c6040516105be9190610f18565b60405180910390a45050505050505050505050565b60008060008473ffffffffffffffffffffffffffffffffffffffff1673ffffffffffffffffffffffffffffffffffffffff16815260200190815260200160002060008381526020019081526020016000206040518060400160405290816000820160009054906101000a900473ffffffffffffffffffffffffffffffffffffffff1673ffffffffffffffffffffffffffffffffffffffff1673ffffffffffffffffffffffffffffffffffffffff168152602001600182015481525050905080602001513410156106cf576040517fbde29c7800000000000000000000000000000000000000000000000000000000815260040160405180910390fd5b6000808473ffffffffffffffffffffffffffffffffffffffff1673ffffffffffffffffffffffffffffffffffffffff1681526020019081526020016000206000838152602001908152602001600020600080820160006101000a81549073ffffffffffffffffffffffffffffffffffffffff0219169055600182016000905550503460016000836000015173ffffffffffffffffffffffffffffffffffffffff1673ffffffffffffffffffffffffffffffffffffffff16815260200190815260200160002060008282546107a39190610fa4565b925050819055508273ffffffffffffffffffffffffffffffffffffffff166342842e0e826000015133856040518463ffffffff1660e01b81526004016107eb93929190610fd8565b600060405180830381600087803b15801561080557600080fd5b505af1158015610819573d6000803e3d6000fd5b50505050818373ffffffffffffffffffffffffffffffffffffffff16826000015173ffffffffffffffffffffffffffffffffffffffff167fd547e933094f12a9159076970143ebe73234e64480317844b0dcb36117116de484602001516040516108839190610f18565b60405180910390a4505050565b6000602052816000526040600020602052806000526040600020600091509150508060000160009054906101000a900473ffffffffffffffffffffffffffffffffffffffff16908060010154905082565b81813360008060008573ffffffffffffffffffffffffffffffffffffffff1673ffffffffffffffffffffffffffffffffffffffff16815260200190815260200160002060008481526020019081526020016000206040518060400160405290816000820160009054906101000a900473ffffffffffffffffffffffffffffffffffffffff1673ffffffffffffffffffffffffffffffffffffffff1673ffffffffffffffffffffffffffffffffffffffff16815260200160018201548152505090506000816020015111156109ee5783836040517fe3775ccb0000000000000000000000000000000000000000000000000000000081526004016109e5929190610eef565b60405180910390fd5b85853360008390508073ffffffffffffffffffffffffffffffffffffffff16636352211e846040518263ffffffff1660e01b8152600401610a2f9190610f18565b602060405180830381865afa158015610a4c573d6000803e3d6000fd5b505050506040513d601f19601f82011682018060405250810190610a709190610f48565b73ffffffffffffffffffffffffffffffffffffffff168273ffffffffffffffffffffffffffffffffffffffff1614610ad4576040517f98ca622600000000000000000000000000000000000000000000000000000000815260040160405180910390fd5b6000808b73ffffffffffffffffffffffffffffffffffffffff1673ffffffffffffffffffffffffffffffffffffffff16815260200190815260200160002060008a8152602001908152602001600020600080820160006101000a81549073ffffffffffffffffffffffffffffffffffffffff021916905560018201600090555050888a73ffffffffffffffffffffffffffffffffffffffff167f6be0c8480cb6f0bffcd4a654fb162c986ba528d5ff0e743ee21b1fc900fa264f60405160405180910390a350505050505050505050565b82823360008390508073ffffffffffffffffffffffffffffffffffffffff16636352211e846040518263ffffffff1660e01b8152600401610be69190610f18565b602060405180830381865afa158015610c03573d6000803e3d6000fd5b505050506040513d601f19601f82011682018060405250810190610c279190610f48565b73ffffffffffffffffffffffffffffffffffffffff168273ffffffffffffffffffffffffffffffffffffffff1614610c8b576040517f98ca622600000000000000000000000000000000000000000000000000000000815260040160405180910390fd5b86863360008060008573ffffffffffffffffffffffffffffffffffffffff1673ffffffffffffffffffffffffffffffffffffffff16815260200190815260200160002060008481526020019081526020016000206040518060400160405290816000820160009054906101000a900473ffffffffffffffffffffffffffffffffffffffff1673ffffffffffffffffffffffffffffffffffffffff1673ffffffffffffffffffffffffffffffffffffffff1681526020016001820154815250509050600081602001511115610d985783836040517fe3775ccb000000000000000000000000000000000000000000000000000000008152600401610d8f929190610eef565b60405180910390fd5b5050505050505050505050565b600080fd5b600073ffffffffffffffffffffffffffffffffffffffff82169050919050565b6000610dd582610daa565b9050919050565b610de581610dca565b8114610df057600080fd5b50565b600081359050610e0281610ddc565b92915050565b6000819050919050565b610e1b81610e08565b8114610e2657600080fd5b50565b600081359050610e3881610e12565b92915050565b600080600060608486031215610e5757610e56610da5565b5b6000610e6586828701610df3565b9350506020610e7686828701610e29565b9250506040610e8786828701610e29565b9150509250925092565b60008060408385031215610ea857610ea7610da5565b5b6000610eb685828601610df3565b9250506020610ec785828601610e29565b9150509250929050565b610eda81610dca565b82525050565b610ee981610e08565b82525050565b6000604082019050610f046000830185610ed1565b610f116020830184610ee0565b9392505050565b6000602082019050610f2d6000830184610ee0565b92915050565b600081519050610f4281610ddc565b92915050565b600060208284031215610f5e57610f5d610da5565b5b6000610f6c84828501610f33565b91505092915050565b7f4e487b7100000000000000000000000000000000000000000000000000000000600052601160045260246000fd5b6000610faf82610e08565b9150610fba83610e08565b9250828201905080821115610fd257610fd1610f75565b5b92915050565b6000606082019050610fed6000830186610ed1565b610ffa6020830185610ed1565b6110076040830184610ee0565b94935050505056fea26469706673582212203bc3df89a85e0cdcb19f891875311c377d63a44c9f6edc486d37147f2ff114e464736f6c63430008140033",
  "linkReferences": {},
  "deployedLinkReferences": {}
}